:0A0000000C945E000C9400000C94B8
:10000A0000000C9400000C9400000C9400000C9466
:10001A0000000C9400000C9400000C9400000C9456
:10002A0000000C9400000C9400000C9400000C9446
:10003A0000000C9400000C9400000C9400000C9436
:10004A0000000C9400000C9400001027E8036400E0
:10005A000A00010000100001100001004D6F6465E4
:10006A002031004D6F64652032002533642025332A
:10007A006420253364202533640044656164204C80
:10008A004F434B0001002D4E414E00494E460000A1
:10009A0080C0070060016600070067016D000A0062
:1000AA006E018400010092018E00020096019A00FE
:1000BA000000F894EE27ECBBF1E0FBBFEBBFE5BF15
:1000CA008DE0A2E0BB27ED938A95E9F780E094E002
:1000DA00A0E6ED930197E9F7ECE9F0E085919591B7
:1000EA00009761F0A591B59105901590BF01F001B7
:1000FA0005900D920197E1F7FB01F0CFEFE5EDBF17
:10010A00E4E0EEBFC0E6D1E00C949A00AA93E8813D
:10011A00E06EE7B9AAEFB0E00E940506369A349B72
:10012A00FECF349AE5B10C943205E0E3EABBE0E78E
:10013A00EBBBE9E1E7BBE0E0E8BBE4BBE5BBECEF26
:10014A00E1BBE0E0E2BBE0EEE7B9E3E8E6B9E0E014
:10015A00E0BFA0E10E940405E1E0F0E05F010E9437
:10016A004D056F01CE992EC0CE9BFECFE1E0F0E0A7
:10017A00EA19FB095F01E1E0F0E0EA15FB0559F431
:10018A00E5E00E945605A0E6B1E00E94F304DC987F
:10019A000E944D0510C0E5E00E945605A7E6B1E0B1
:1001AA000E94F304DC9AE6E9F0E0E0939001F09310
:1001BA009101EAE5F0E06F01A0EDB7E00E940506C3
:1001CA000E94CC040E945A05D2D0CAD1E130C9F4A7
:1001DA000E945E05DF01E3E0F0E00E944A062F017B
:1001EA00042C052811F48CD00BC00E94680511F468
:1001FA0084D006C0E2E0F0E0E415F50509F48ED0FB
:10020A002BC090D1E13061F40E945E050E946D0519
:10021A0011F476D004C00E94680509F46ED01CC09F
:10022A0090D1E13061F40E945E050E946D0511F4DF
:10023A0075D004C00E94680509F45FD00DC063D16F
:10024A00E13051F45AD0E1E0E91521F40E94750534
:10025A00992402C0D60171D085CFFFCF1A930A9391
:10026A0000E010E00430E0E01E07B4F4E3E0F0E060
:10027A00E01BF10BA8E7B1E0EE0FFF1FEA0FFB1F2F
:10028A00FF93EF93A02F42DFAF91BF91F0E0ED9380
:10029A00FC930F5F1F4FE6CF099119910895E0E88B
:1002AA00F1E0FA93EA93E4E7F0E0FA93EA93E09153
:1002BA007801F09179010E947905E0917A01F09133
:1002CA007B010E947905E0917C01F0917D010E94F9
:1002DA007905E0917E01F0917F010E94790580E124
:1002EA000E943B046496E0E0EA93A0E00E94BD0409
:1002FA00A0E8B1E00E94F3040895929A939834C05A
:10030A000E947E052AD00E94860527D00E94750584
:10031A000E945A05F8D0E030C1F30DC00E947E0554
:10032A0021D00E9486051ED00E9475050E945A059A
:10033A00EAD0E030C1F30ED00895BA93AA93949A02
:10034A00959AA881B9810E948C050C94CA04949A42
:10035A00959A0895949895980895929A9398969A4A
:10036A00979808959298939A9698979A08950E94C2
:10037A00900548F00E94960530F00E949C0518F4FA
:10038A000E94A20508F006C00E94A8050E94AC05BA
:10039A009924B8C00E94900548F40E94960530F44A
:1003AA000E949C0518F00E94A20508F406C00E944B
:1003BA00B5050E94AC059924A5C00E94900548F491
:1003CA000E94960530F00E949C0518F40E94A2052E
:1003DA0008F006C00E94A8050E94B905992492C097
:1003EA000E94900548F40E94960530F40E949C05EC
:1003FA0018F00E94A20508F006C00E94B5050E94E6
:10040A00B90599247FC00E94900548F00E9496057C
:10041A0030F40E949C0518F40E94A20508F006C058
:10042A000E94A8050E94C20599246CC00E949005EA
:10043A0048F40E94960530F40E949C0518F40E9424
:10044A00A20508F406C00E94B5050E94C2059924B7
:10045A0059C00E94900548F40E94960530F40E9403
:10046A009C0518F40E94A20508F029C0E3E00E9446
:10047A005605AEE6B1E00E94F3040E94B505AAE86B
:10048A00B2E05BDF3ADF0E94CC046624772465DFA2
:10049A00ACE3B0E052DFF30131963F01E9E0F0E06E
:1004AA00E615F70531F46624772427DFA6E4B0E0E1
:1004BA0044DF0E945A0527D0E03049F322C00E9447
:1004CA00900548F00E94960530F00E949C0518F4A9
:1004DA000E94A20508F403C00E94A8050FC00E944A
:1004EA00900548F00E94960530F40E949C0518F089
:1004FA000E94A20508F406C00E94B505A6E4B0E071
:10050A001CDF28DF08950E94960548F00E949C058A
:10051A0030F00E94900518F40E94A20508F001C06C
:10052A002CC02DC00E94900548F40E94960530F018
:10053A000E949C0518F00E94A20508F401C01DC083
:10054A001EC00E94900548F00E94960530F00E9455
:10055A009C0518F00E94A20508F001C00EC00FC049
:10056A000E94900548F00E94960530F00E949C0572
:10057A0018F00E94A20508F402C0E1E00895E0E044
:10058A0008950895BA93AA931A930A93AA81BB81EC
:10059A0012960E946206309759F1AA81BB8114967D
:1005AA000E9462068F01309761F00230E0E01E0778
:1005BA0098F0F80131978F01AA81BB811496ED93C7
:1005CA00FC93AA81BB811296ED91FD913196FE931F
:1005DA00EE933197AC81A083AA81BB810E94620607
:1005EA00FF232AF0ED91FD913196FE93EE9306C01A
:1005FA00AA81BB81EFEFFFEFED93FC93198108818C
:10060A0025960895BA93AA9326970E946F0610E03A
:10061A00AC85BD85E0E0F0E0ED93FC93EA89FB89C7
:10062A003196EA8BFB8B3197E4912E2FE03009F457
:10063A0015C1E12FE03039F4253211F411E002C07E
:10064A000E94CB050AC1E130A9F4253219F40E94AF
:10065A00CB0502C112E040E000E02D3211F401E0C6
:10066A00FCC02B3211F44BE2F8C0203211F440E204
:10067A00F4C002C0E23039F450E013E0203311F440
:10068A000068EBC003C0E33009F0E7C0203310F084
:10069A002A3308F007C0AAE05A9F502DE22FE053F0
:1006AA005E0FDBC0E22FE33649F40E94D205E889E7
:1006BA00F989A481AA930E94D805CEC0E33741F4F0
:1006CA000E94D2050E94DE050E9434051E2F0AC030
:1006DA00E03761F40E94D2050E94DE050E944005BF
:1006EA001E2F086002600F7730E034C0E43611F044
:1006FA00E93611F4046002C0E53731F4E4E5F0E0CC
:10070A00EE83FF8315E00CC0E83511F4086003C0DE
:10071A00E83709F0A1C0EEE5F0E0EE83FF8314E0CC
:10072A0002FF14C00E94D2050E94E805AB85AA23E5
:10073A003AF4EA85FB850E941306EA87FB874DE2B5
:10074A00403011F01F5F01C00B7F04C00E94D20528
:10075A000E94E80500FD11C0151778F407FF08C0CC
:10076A0002FF04C00B7F242F115001C020E301C0F7
:10077A0020E20E94CB055150EFCF312F01FF17C065
:10078A003030A1F003FF06C0EE81FF812591EE8390
:10079A00FF8305C0AE81BF812D91AE83BF830E94C6
:1007AA00CB05503009F051503150EACF4BC020E30D
:1007BA00EE81FF810E946606E887F987EE81FF8154
:1007CA003296EE83FF83E885F985AA85BB85AE1745
:1007DA00BF0750F02F5FA885B985EA85FB85EA1B1C
:1007EA00FB0BEA87FB87EFCF2A3328F003FF02C00F
:1007FA00295F01C0295D04FD1AC0213320F4A885B0
:10080A00B985119709F409C0531710F000FF01C008
:10081A0013C020E207FF0BC020E3006102FF07C0FC
:10082A000B7F4A930E94D805503009F051500E941C
:10083A00CB05503009F051503150A885B98512972F
:10084A0008F0B5CF00FF08C0503031F05150E0E257
:10085A00EA930E94D805F8CF10E0E0CEAC85BD85BA
:10086A000E9462060E94760664960895FF92F82E08
:10087A0026970E9471060E94F005309719F4EFEF4F
:10088A00FFEF23C0DE0116960E940F068D010E941B
:10089A00F005EE83FF83E0E0E887E987DE011A9638
:1008AA000E940F060E946206FA93EA931A930A9329
:1008BA00E7ECF2E0FA93EA93DE011A96A3DE9F01CF
:1008CA00AE81BF81E0E0EC93F9010E9478062A9696
:1008DA00FF900895E0919201F09193016091940143
:1008EA0070919501ADE6BEE486EC91E40E9417068C
:1008FA00EE59F8486F4F7F4FE0939201F0939301BE
:10090A006093940170939501FB01FF770895AA9370
:10091A00E881E07111F0AB9A01C0AB98E881E0720E
:10092A0011F0AC9A01C0AC98E881E07411F0AD9A6C
:10093A0001C0AD98E881E07811F0AE9A01C0AE9896
:10094A008DE08A95F1F7AA9A8DE08A95F1F7AA982F
:10095A008DE08A95F1F781C0AA93A881D8DFE88152
:10096A00E295E883A881D3DF85E88A95F1F775C017
:10097A00AA93E881F0E0EA56FE4FE081A981AE0F22
:10098A00EBDF8980E881E0939A0122960895A2E03C
:10099A000E94F705ACE0E0DFA1E00E94F705E0E085
:1009AA00E0939A018E2E0895AA93A881AA3021F085
:1009BA00E0919B018E1660F0E0E0EA93A0919A0123
:1009CA00AF5FA0939A01D4DFA881AA3009F445C089
:1009DA008394A89AA881C0DFA8983FC0BA93AA9323
:1009EA001A93A981BA81ED91A983BA831E2FE030A7
:1009FA0019F0A12FD9DFF5CF188123960895AA936C
:100A0A00A39AA49AA59AA69AA29AA09AA19AAA98EF
:100A1A00A898A998E881E0939B01E058E09398018F
:100A2A00E881E054E0939901A4E1B0E00E94050650
:100A3A000E94FD050E94FD050E94FD05A0E267DFF8
:100A4A0088EC90E00197F1F7A8E286DFA4E084DF62
:100A5A00A5E882DFA6E080DF9ADF21960895BA939F
:100A6A00AA93A991B991EE27FF276D91662311F0F8
:100A7A003196FBCF0895BA93AA93AA27BB27E99187
:100A8A00F9910590002011F01196FBCFFD01089510
:100A9A00EAEFF0E0E0939001F0939101E8E7F0E0EB
:100AAA000895EA93A1E00C94BD040E9433010C94CA
:100ABA0054010E948201A0E5B0E00E94A2010E94B6
:100ACA00AF010C946F04E1E0F0E0E415F505089538
:100ADA00A1E0B0E00E9458062F01042C05280895D1
:100AEA00A2E3B0E00C94A201662777270E946A0667
:100AFA0008950E94AC010E948201AEE1B0E00C941C
:100B0A000506A0919001B09191010C9405060E94EE
:100B1A0005060C94AF01A0917801B0917901D297A2
:100B2A000895A0917A01B0917B01D2970895A0917E
:100B3A007C01B0917D01D2970895A0917E01B09178
:100B4A007F01D29708950E94AC010C94B701A8E2E4
:100B5A00B0E00E9405060E948201A8E2B0E0D7CF69
:100B6A000E94AC010C94B201A9E1B0E00E94050612
:100B7A000E948201ADE2B0E0CACFACE3B0E00E94CD
:100B8A0005060E948201A3E2B0E0C1CF2A93AD8597
:100B9A00BE85EF85F88909950895E889F98934971A
:100BAA00E88BF98B0895AD85BE85EF85F88909959F
:100BBA000895A889B98914960E946206EE83FF8374
:100BCA00AE81BF810895A889B98914960E946206E8
:100BDA00EA87FB870895DE011C960E940F060E9491
:100BEA00620608950E94B104A3E0B0E00C940506E1
:100BFA00A0E30E948C0488EC90E00197F1F7089535
:100C0A00109639F080ED97E00197F1F7A8951197C2
:100C1A00C9F708950024AF0DB01D0895F195E19527
:100C2A00F04008957A9F702D6B9F700DF89F700D9C
:100C3A00E99F700D6A9F602D710DFB9F600D711DFC
:100C4A00E89F600D711D8827FA9FF02D610D781FAE
:100C5A00EB9FF00D611D781FEA9FE02DF10D681FD3
:100C6A00781F08950024112490E1AA0FBB1F001CCD
:100C7A00111C0E1A1F0A18F40E0E1F1E01C0A160C5
:100C8A009A9599F7FD01D0010895E894B7FF04C039
:100C9A00A095B09511966894F7FDC0DFE3DFFD01DA
:100CAA000EF4BCDF0895E894F7FF02C0B7DF68943A
:100CBA00EA23FB230EF4B2DF0895ED91FC9111971C
:100CCA0008950590F491E02D08957A936A93FA9322
:100CDA00EA9308955A934A933A932A931A930A9352
:100CEA0008955D814C813B812A811981088108958B
:00000001FF
